:100000000C94A3000C94C0010C9499010C94CB00A7
:100010000C94CB000C94CB000C94CB000C94CB0034
:100020000C94CB000C94CB000C94CB000C94CB0024
:100030000C94CB000C94CB000C94CB000C94CB0014
:100040000C944F010C94CB000C94CB000C94CB007F
:100050000C94CB000C94CB000C94CB000C94CB00F4
:100060000C9488080C94CB0007634236B79BD8A742
:100070001A39685618AEBAAB558C1D3CB7CC5763CD
:10008000BD6DEDFD753EF6177231BF000000803F7B
:1000900008000000BE922449123EABAAAA2ABECD97
:1000A000CCCC4C3E00000080BEABAAAAAA3E000009
:1000B0000000BF000000803F000000000008417801
:1000C000D3BB4387D1133D190E3CC3BD4282AD2B38
:1000D0003E68EC8276BED98FE1A93E4C80EFFFBE30
:1000E00001C4FF7F3F00000000000000000024006A
:1000F00027002A0000000000250028002B00000037
:10010000000023002600290004040404040404045D
:1001100002020202020203030303030301020408B2
:100120001020408001020408102001020408102061
:1001300000000008000201000003040700000000A6
:1001400000000000940F11241FBECFEFD8E0DEBFE7
:10015000CDBF12E0A0E0B1E0ECECFFE202C0059000
:100160000D92A63AB107D9F724E0A6EAB2E001C0A1
:100170001D92A130B207E1F710E0C3EAD0E004C05D
:100180002197FE010E940214C23AD107C9F70E94CA
:10019000C1090C94E4170C9400000895CF92DF92EB
:1001A000EF92FF920F931F93CF93DF936C017A012D
:1001B0008B01C0E0D0E0CE15DF0589F0D8016D914C
:1001C0008D01D601ED91FC910190F081E02DC601E9
:1001D0000995892B11F47E0102C02196ECCFC7014D
:1001E000DF91CF911F910F91FF90EF90DF90CF9013
:1001F00008950E94DF173FB7F8948091D402909140
:10020000D502A091D602B091D70226B5A89B05C011
:100210002F3F19F00196A11DB11D3FBFBA2FA92F85
:10022000982F8827820F911DA11DB11DBC01CD0102
:1002300042E0660F771F881F991F4A95D1F70895EE
:100240002FB7F8946091D0027091D1028091D202C0
:100250009091D3022FBF08951F93CF93DF93EC01AA
:10026000162F688358874F8360E0812F0E942305F3
:1002700061E0812F0E94F3040E9420016B837C8344
:100280008D839E8388810E94CA0421E0892B09F412
:1002900020E02A832983DF91CF911F9108951F9237
:1002A0000F920FB60F9211242F933F938F939F932A
:1002B000AF93BF938091D0029091D102A091D202CE
:1002C000B091D3023091CF0223E0230F2D3720F4D9
:1002D0000196A11DB11D05C026E8230F0296A11DA0
:1002E000B11D2093CF028093D0029093D102A093AE
:1002F000D202B093D3028091D4029091D502A09102
:10030000D602B091D7020196A11DB11D8093D402EF
:100310009093D502A093D602B093D702BF91AF912C
:100320009F918F913F912F910F900FBE0F901F9033
:1003300018951F920F920FB60F9211242F933F938F
:100340004F935F936F937F938F939F93AF93BF93DD
:10035000EF93FF93E0910201F09103010995FF9162
:10036000EF91BF91AF919F918F917F916F915F912D
:100370004F913F912F910F900FBE0F901F901895A6
:100380001F920F920FB60F9211242F933F934F930A
:100390005F936F937F938F939F93AF93BF93EF93ED
:1003A000FF93E0910001F09101010995FF91EF9118
:1003B000BF91AF919F918F917F916F915F914F917D
:1003C0003F912F910F900FBE0F901F9018958F9215
:1003D0009F92AF92BF92CF92DF92EF92FF920F93D4
:1003E0001F93CF93DF93EC0188810E94CA0411E030
:1003F000892B09F410E00E9420012A812983CB80F7
:10040000DC80ED80FE804F8158851217A9F04B01EA
:100410005C018C189D08AE08BF086A01550FEE08F4
:10042000FF088C149D04AE04BF040CF01A836B8388
:100430007C838D839E831CC08A01550F220B330B56
:100440004B015C018C189D08AE08BF088016910610
:10045000A206B3066CF0DC01CB01801B910BA20B52
:10046000B30B0197A109B1098B839C83AD83BE8334
:10047000DF91CF911F910F91FF90EF90DF90CF9080
:10048000BF90AF909F908F900895CF92DF92EF92A0
:10049000FF920F931F93CF93DF937C016C0187E052
:1004A000C80ED11CC0E0D0E0062F10E0B8010C2E21
:1004B00002C0759567950A94E2F76170F601819123
:1004C0006F010E94F3042196C430D10579F7C7016A
:1004D000DF91CF911F910F91FF90EF90DF90CF9020
:1004E0000C940E08833081F028F4813099F082302A
:1004F000A1F008958730A9F08830B9F08430D1F4A4
:10050000809180008F7D03C0809180008F778093E1
:100510008000089584B58F7702C084B58F7D84BD37
:1005200008958091B0008F7703C08091B0008F7DD7
:100530008093B0000895009769F0FC0101900020BD
:10054000E9F73197AF01481B590BBC0182E993E0F1
:100550000C94CE0080E090E008958F929F92AF922D
:10056000BF92CF92DF92EF92FF92CF93C82F0E945B
:100570002001C0907C03D0907D03E0907E03F0903A
:100580007F034B015C018C189D08AE08BF08C0902A
:100590008003D09081030D2C000CEE08FF088C1412
:1005A0009D04AE04BF044CF140917B03242F30E046
:1005B000F901EE0FFF1FEE0FFF1FEB5BFC4F168ED6
:1005C000178E10A211A24F5F40937B03220F331F9F
:1005D000220F331FF901EF5AFC4F668F778F80A3EC
:1005E00091A360937C0370937D0380937E0390932B
:1005F0007F03433010F010927B03C11121C0209182
:100600007B0330E0F901EE0FFF1FEE0FFF1FEF5AE3
:10061000FC4FC68CD78CE0A0F1A04B015C018C187C
:100620009D08AE08BF0875016401181419041A0466
:100630001B040CF445C0C12CD12C7601C39440C0DE
:10064000C0906303D0906403E0906503F09066036C
:100650002FEFC21AD20AE20AF20AC0926303D092C2
:100660006403E0926503F0926603C0906703D09044
:100670006803E0906903F0906A032FEFC21AD20A70
:10068000E20AF20AC0926703D0926803E09269031B
:10069000F0926A03C0906B03D0906C03E0906D03FE
:1006A000F0906E032FEFC21AD20AE20AF20AC09249
:1006B0006B03D0926C03E0926D03F0926E039FCFB8
:1006C000220F331F220F331FF901EB5BFC4F668DA6
:1006D000778D80A191A10E94331520E030E04AE798
:1006E00054E40E941C164B015C01C701B6010E9434
:1006F00033159B01AC01C501B4010E9489146093BC
:100700008203709383038093840390938503CF9136
:10071000FF90EF90DF90CF90BF90AF909F908F9021
:100720000895682F86E893E00C94C6060C949B020B
:10073000643008F063E09091A503691710F06FEF43
:10074000690FE62FF0E0EE56FC4F9489682F690F91
:10075000606882E993E00C947D088F929F92AF923B
:10076000BF920F931F93CF93DF93CDB7DEB7A197BF
:100770000FB6F894DEBF0FBECDBF19A2423008F409
:100780004AE08E010F5D1F4F842E912CA12CB12CBD
:10079000A50194010E94B613E62FB901CA010150C8
:1007A0001109EA3014F4E05D01C0E95CD801EC9372
:1007B000232B242B252B61F7C8010E949B02A196B5
:1007C0000FB6F894DEBF0FBECDBFDF91CF911F9162
:1007D0000F91BF90AF909F908F9008952091440308
:1007E00090914303213208F04AC080912003811187
:1007F000FCCF32E03093200331E030931F033FEF12
:1008000030931E0310921D0320931C03A3E2B3E058
:100810004CEF52E0FA013E2F341B321718F43D9191
:100820003193F9CF1092FB022091FB02990F922B8A
:100830009093FB029091FA02913061F41092FA02C7
:100840009091FB029093BB009091BC0093FDF8CF78
:1008500095EC01C095EE9093BC00909120039230EE
:10086000E1F390911E039F3F79F080911E03803247
:1008700041F080911E03803331F084E005C081E0B7
:1008800003C082E001C083E010922203109244036F
:10089000109221030895909120039111FCCF813291
:1008A00008F080E291E09093200390931F032FEFD4
:1008B00020931E0310921D03280F20931C03909376
:1008C000FB029091FB0290619093FB029091FA02DF
:1008D000913061F41092FA029091FB029093BB0068
:1008E0009091BC0093FDF8CF95EC01C095EE9093EC
:1008F000BC00909120039130E1F390911D03981773
:1009000010F480911D03ACEFB2E02AED32E0F90162
:100910009E2F921B981718F49D919193F9CF1092E6
:10092000D9028093D8020895CF92DF92EF92FF927E
:10093000CF93DF936C01990FEE08FF08F7FE1FC0FD
:10094000E0919203F09193030190F081E02D6DE22C
:1009500082E993E00995EC0166277727CB016C19B2
:100960007D098E099F094AE00E94AD038C0F9D1FEF
:10097000DF91CF91FF90EF90DF90CF9008954AE004
:10098000C701B601DF91CF91FF90EF90DF90CF903C
:100990000C94AD03CF93DF93282F30E0F901E05D95
:1009A000FE4F8491F901E45EFE4FD491F901E85FB6
:1009B000FE4FC491CC2391F081110E947202EC2F62
:1009C000F0E0EE0FFF1FE250FF4FA591B491EC91C4
:1009D000ED2381E090E021F480E002C080E090E02F
:1009E000DF91CF9108951F93CF93DF93282F30E0AD
:1009F000F901E05DFE4F8491F901E45EFE4FD49170
:100A0000F901E85FFE4FC491CC23C9F0162F811184
:100A10000E947202EC2FF0E0EE0FFF1FEC50FF4F30
:100A2000A591B4918FB7F894111105C09C91ED2F49
:100A3000E095E92302C0EC91ED2BEC938FBFDF91A1
:100A4000CF911F910895CF93DF9390E0FC01E45E76
:100A5000FE4F2491FC01E85FFE4F8491882361F1F1
:100A600090E0880F991FFC01E651FF4FC591D4918A
:100A7000FC01EC50FF4FA591B491611109C09FB7E3
:100A8000F8948881209582238883EC912E230BC0D3
:100A9000623061F49FB7F8943881822F8095832368
:100AA0008883EC912E2B2C939FBF06C08FB7F894B0
:100AB000E8812E2B28838FBFDF91CF910895EF928D
:100AC000FF920F931F93CF93DF93EC01423018F006
:100AD0008F8588608F874B8B1C8A80E48D8B6E8B13
:100AE00070E0605C7F4F6F8B61E08C810E9423051A
:100AF0008D818F3F19F061E00E94230561E08E81B6
:100B00000E9423057E0187E0E80EF11C00E010E062
:100B10008F8584FD03C084E090E002C088E090E00F
:100B2000081719074CF461E0F70181917F010E94D9
:100B300023050F5F1F4FECCF8BE39DE00197F1F78B
:100B400060E08C810E94F30460E08E810E94F304D7
:100B50008D818F3F19F060E00E94F3046F8564FD82
:100B60001DC063E0CE010E9445020BE416E4C801FB
:100B70000197F1F763E0CE010E944502C801019799
:100B8000F1F763E0CE010E94450283E592E0019710
:100B9000F1F762E0CE010E94450216C06062CE010C
:100BA0000E947D088BE496E40197F1F76F856062FF
:100BB000CE010E947D0883E592E00197F1F76F85F1
:100BC0006062CE010E947D086F856062CE010E9446
:100BD0007D0884E0888B6CE0CE010E947D08CE0108
:100BE0000E94800882E0898B66E0CE01DF91CF9180
:100BF0001F910F91FF90EF900C947D088F929F9220
:100C0000AF92BF92CF92DF92EF92FF926B017C0185
:100C10000E94FB004B015C01C114D104E104F1040A
:100C2000F1F00E94FB00DC01CB0188199909AA09A7
:100C3000BB09883E9340A105B10570F321E0C21ABB
:100C4000D108E108F10888EE880E83E0981EA11C07
:100C5000B11CC114D104E104F10419F7DDCFFF90F8
:100C6000EF90DF90CF90BF90AF909F908F900895BE
:100C70000895E091D9028091D802E81730F4F0E0AD
:100C8000E652FD4F808190E008958FEF9FEF089529
:100C90009091D9028091D802981750F4E92FF0E092
:100CA000E652FD4F208130E09F5F9093D90202C051
:100CB0002FEF3FEFC90108958091D80290E0209175
:100CC000D902821B9109089585ED8093BC00809123
:100CD000BC0084FDFCCF1092200308954091CC030A
:100CE000262F30E0240F311D21323105DCF4209114
:100CF00020032430C9F4FC0180E090E0861758F40A
:100D00003091CC032191DC01A655BC4FA30FB11D3E
:100D10002C930196F3CF8091CC03680F6093CC03A2
:100D200080E0089581E0089582E00895CF92DF92F7
:100D3000EF92FF920F931F93CF93DF937C01262FA7
:100D4000972F8A0180912103882391F0C62FD72FF6
:100D50006E01C40ED51ECC15DD0571F06991D70169
:100D6000ED91FC910190F081E02DC7010995F3CF41
:100D7000642F822F0E946E06C801DF91CF911F91D0
:100D80000F91FF90EF90DF90CF900895CF93DF9376
:100D90001F92CDB7DEB76983209121032223D1F0C2
:100DA00020914403203240F021E030E0FC01338305
:100DB000228380E090E015C080912203E82FF0E0CC
:100DC000ED5DFC4F998190838F5F80932203809328
:100DD000440305C061E0CE0101960E946E0681E0E9
:100DE00090E00F90DF91CF9108954F925F926F92B4
:100DF0007F928F929F92AF92BF92CF92DF92EF92AB
:100E0000FF920F931F93CF93DF9381E593E00E94AE
:100E1000E7018AE593E00E94E701809152039091F7
:100E20005303911102C0811113C080E0DF91CF9173
:100E30001F910F91FF90EF90DF90CF90BF90AF90F8
:100E40009F908F907F906F905F904F900C94AD0229
:100E500081E00E94AD0260918203709183038091D2
:100E60008403909185030E94FB14653071050CF496
:100E7000D2C060918203709183038091840390912A
:100E800085030E94FB146F3171056CF4609182033D
:100E90007091830380918403909185030E94FB14D9
:100EA000EB01259702C0C9E1D0E040904903509082
:100EB0004A0360904B0370904C03809045039090E0
:100EC0004603A0904703B0904803C301B2016819DC
:100ED00079098A099B0964367105810591053CF001
:100EE00024E630E040E050E00E94D81304C021E046
:100EF00030E040E050E06E01DD0FEE08FF08C70172
:100F0000B6010E94A6139B01AC01C701B6010E9465
:100F1000A6139B01AC01C701B6010E94A61329E0EC
:100F20003DE340E050E00E94D81389019A010F5F31
:100F30001F4F2F4F3F4FC0904D03D0904E03E09076
:100F40004F03F090500360915C03611108C0882743
:100F50009927DC01801B910BA20BB30B02C0D901B6
:100F6000C8018C0D9D1DAE1DBF1D88159905AA05D4
:100F7000BB05C4F1C0904D03D0904E03E0904F03E9
:100F8000F0905003611108C088279927DC01801B6D
:100F9000910BA20BB30B02C0D901C8018C0D9D1D92
:100FA000AE1DBF1D481659066A067B06CCF0809020
:100FB0004D0390904E03A0904F03B09050036111E9
:100FC00008C088279927DC01801B910BA20BB30B6B
:100FD00002C0D901C801880E991EAA1EBB1E02C0FC
:100FE0005301420180924D0390924E03A0924F0311
:100FF000B0925003DF91CF911F910F91FF90EF902E
:10100000DF90CF90BF90AF909F908F907F906F9028
:101010005F904F900895C0E0D0E047CFCF93DF932B
:10102000EC0160E08E810E94F30461E08E810E94F9
:10103000F30460E08E810E94F3048BE891E0019755
:10104000F1F7DF91CF910895CF92DF92EF92FF9267
:101050000F931F93CF93DF93EC01F62E642F8C81B7
:101060000E94F3048D818F3F19F060E00E94F30429
:101070008F850F2D10E084FF25C06E0187E0C80E1C
:10108000D11CE12CF12CB8010E2C02C0759567958E
:101090000A94E2F76170F60181916F010E94F304F6
:1010A000FFEFEF1AFF0A88E0E816F10461F7CE01BE
:1010B000DF91CF911F910F91FF90EF90DF90CF9034
:1010C0000C940E08B80184E0759567958A95E1F750
:1010D000CE010E9445026F2DCE01DF91CF911F916D
:1010E0000F91FF90EF90DF90CF900C94450241E07C
:1010F0000E94240881E090E0089540E00C942408C8
:1011000061E00E947D088BE39FE10197F1F708956C
:101110001F920F920FB60F9211242F933F934F936C
:101120005F936F937F938F939F93AF93BF93EF934F
:10113000FF938091B900887F803609F49CC068F5E0
:10114000883209F45BC090F4803109F454C038F45B
:10115000882309F4F6C0883009F44DC0F6C0883100
:1011600009F44CC0803209F45DC0EFC0803409F44A
:1011700068C048F4803309F455C0883309F0E5C0ED
:1011800080931E03D8C0803509F44FC0883509F418
:101190005DC0883409F0D9C0D6C0883909F4C7C009
:1011A000A8F4883709F467C038F4883609F463C0B6
:1011B000803709F460C0C9C0883809F4B8C08039E4
:1011C00009F45FC0803809F0C0C05BC0803B09F4FF
:1011D00086C038F4803A09F466C0883A09F47FC0C2
:1011E000B4C0803C09F4A7C0883C09F4A4C0883B83
:1011F00009F48AC0AAC08091FB0210C090911D031F
:1012000080911C03981770F5E0911D0381E08E0F0B
:1012100080931D03F0E0E450FD4F80818093BB007C
:1012200085EC86C080931E038EC0E0911D0381E093
:101230008E0F80931D038091BB00F0E0E450FD4FC2
:10124000808390911D0380911C036EC0E0911D036B
:1012500081E08E0F80931D038091BB00F0E0E4508D
:10126000FD4F808380911F0381116DC081E08093C9
:10127000FA0284EA61C083E0809320031092F003B5
:10128000CFCF8091F003803208F051C0E091F0039D
:1012900081E08E0F8093F0038091BB00F0E0E0537B
:1012A000FC4F8083BDCF85EC8093BC00109220035F
:1012B0008091F003803230F4E091F003F0E0E053ED
:1012C000FC4F10826091F00370E0E091CE03F0914A
:1012D000CF0380ED93E009951092F00336C084E0CF
:1012E000809320031092CD031092CC03E091CA03A7
:1012F000F091CB0309958091CC03811105C081E069
:101300008093CC031092AA03E091CD0381E08E0F6D
:101310008093CD03F0E0E655FC4F80818093BB00C5
:101320009091CD038091CC03981708F479CF85E88C
:101330008093BC000AC085EC8093BC00109220030F
:1013400004C010921E030E946406FF91EF91BF91AA
:10135000AF919F918F917F916F915F914F913F914D
:101360002F910F900FBE0F901F901895FC01DB017D
:10137000049621912D93E817F907D9F7CB0104962C
:101380000895CF93DF93CDB7DEB7C354D1090FB61D
:10139000F894DEBF0FBECDBF789484B5826084BD63
:1013A00084B5816084BD85B5826085BD85B5816069
:1013B00085BD80916E00816080936E0010928100E7
:1013C00080918100826080938100809181008160A2
:1013D0008093810080918000816080938000809163
:1013E000B10084608093B1008091B00081608093EF
:1013F000B00080917A00846080937A0080917A00B6
:10140000826080937A0080917A00816080937A0074
:1014100080917A00806880937A001092C10044E045
:1014200064E182E993E00E945F0541E050E062E000
:1014300081E593E00E942C0141E050E063E08AE501
:1014400093E00E942C010E94200160937C03709322
:101450007D0380937E0390937F0310926303109229
:101460006403109265031092660360936F03709398
:10147000700380937103909372031092670310922C
:1014800068031092690310926A0360937303709368
:101490007403809375039093760310926B031092FC
:1014A0006C0310926D0310926E0360937703709338
:1014B00078038093790390937A0310927B0386EAF2
:1014C00090E0909381038093800310924D031092DB
:1014D0004E0310924F031092500310924503109246
:1014E0004603109247031092480388EE93E0A0E071
:1014F000B0E08093490390934A03A0934B03B093C9
:101500004C034AE050E066E088EA92E00E942C0139
:101510001092D9021092D802109222031092440322
:101520001092200381E080931F031092FA0261E081
:1015300082E10E94F30461E083E10E94F304809160
:10154000B9008E7F8093B9008091B9008D7F809320
:10155000B90088E48093B80085E48093BC0085EFEF
:1015600096E09093010180930001809169008C7F47
:10157000816080936900E89A61E088E00E949803A6
:101580008CE191E00E94960362E087E00E9498035C
:1015900081E291E00E94960360ED77E080E090E0C8
:1015A0000E94FE0582E993E00E948008E12CF12C64
:1015B000BB24B39498E0A92EB0922103A0924303D8
:1015C000109222031092440380E090E00E94910365
:1015D0008AEA90E00E94910385E590E00E949103E1
:1015E0008FEF90E00E9491030E94EE0364E670E0AA
:1015F00080E090E00E94FE0583E090E00E944B04B2
:1016000000E010E0C12CD12C9091D8028091D90239
:101610009817E9F086E893E00E9448068A3A21F498
:10162000C114D10481F40DC0853529F481E0C816B8
:10163000D10449F406C08F3F31F492E0C916D104B9
:1016400011F40F5F1F4FEFEFCE1ADE0ADDCF03302C
:10165000110569F1F3E0EF16F10469F182E993E015
:101660000E94800888E291E00E94960361E080E099
:101670000E94980381E090E00E9494048DE391E041
:101680000E94960363E080E00E94980385E491E065
:101690000E9496038FEFE81AF80AC7010E9494048B
:1016A00060ED77E080E090E00E94FE0585CF93E05A
:1016B000E916F104A9F461E08DE00E94F30468EEFC
:1016C00073E080E090E00E94FE0560E08DE00E9403
:1016D000F30468EE73E080E090E00E94FE05EBCF3B
:1016E0001092CE020E946413FE0131963F0188EAF7
:1016F00092E00E94E7018091A9029091AA029111C3
:101700002BC0882349F18091A6029091A7020097EF
:1017100009F009C1B3E58B2EB1E09B2E11E6A12E95
:1017200011E0B12E02E0C02ED12CE12CF12C00E012
:101730001FE32AE037ED43E25CE360E070E080E025
:1017400090E40E946A112FA738AB49AB5AAB6BAB40
:1017500061114EC00E9464138FB7F894C0904D037E
:10176000D0904E03E0904F03F09050038FBF8091D4
:10177000B5029091B602A091B702B091B8028C1553
:101780009D05AE05BF0559F1E1E0CE16D104E10497
:10179000F104D1F054F4C114D104E104F104E9F4EA
:1017A0001092A7021092A60218C082E0C816D104B7
:1017B000E104F10461F093E0C916D104E104F104FD
:1017C00061F482E090E005C081E090E002C083E037
:1017D00090E09093A7028093A6020E943913C092D2
:1017E000B502D092B602E092B702F092B8027FCF73
:1017F00074E6872E71E0972EE2E7AE2EE1E0BE2E72
:10180000CC24C394D12CE12CF12C0AEF13E420E07A
:1018100030E040E85FE360E070E48CE996E40E9429
:101820006A112F8B388F498F5A8F6B8F662309F47B
:1018300091CF48E7842E41E0942E51E6A52E51E049
:10184000B52EE12CF12C00E211E420E030E040E87C
:101850005FE360E070E08AEF93E40E946A112983FD
:101860003A834B835C836D83662309F473CF2FA582
:1018700038A949A95AA92093C1023093C2024093C2
:10188000C3025093C4028F88988CA98CBA8C809222
:10189000BD029092BE02A092BF02B092C0026981C6
:1018A0007A818B819C816093B9027093BA02809394
:1018B000BB029093BC020E9489140E94FB14072E65
:1018C000000C880B990B0E9433156B017C019B0166
:1018D000AC01C501B4010E948914AE014C5C5F4F9C
:1018E0000E94E8154B015C016CA97DA98EA99FA9F6
:1018F0000E9402156093C502C092C602D092C70230
:10190000E092C802F092C902A7019601C501B40194
:101910000E941C166093CA027093CB028093CC0283
:101920009093CD0217CF8130910509F082C01091BC
:10193000C5028090C6029090C702A090C802B090E5
:10194000C902C090CA02D090CB02E090CC02F090C5
:10195000CD0282E993E00E94800889E891E00E942C
:1019600096036091BD027091BE028091BF0290917A
:10197000C00241E050E00E9438108CE891E00E94E3
:1019800096036091C1027091C2028091C30290914E
:10199000C40242E050E00E94381061E080E00E9402
:1019A000980380E991E00E9496036091B9027091DA
:1019B000BA028091BB029091BC0241E050E00E94CB
:1019C000381062E080E00E94980387E991E00E946D
:1019D0009603612F70E080E090E04AE00E94AD0342
:1019E0008EE991E00E94960341E050E0C501B40108
:1019F0000E9438108CE991E00E94960341E050E08B
:101A0000C701B6010E94381063E080E00E9498038D
:101A100080EA91E00E94960388EA92E00E94E70142
:101A20008091A9029091AA029111F6CF8823A1F387
:101A300091CE8230910509F05BC08091C1029091F6
:101A4000C202A091C302B091C40224968CAF9DAF94
:101A5000AEAFBFAF24978091BD029091BE02A0911E
:101A6000BF02B091C0028CAF9DAFAEAFBFAF80914F
:101A7000B9029091BA02A091BB02B091BC0288AFAA
:101A800099AFAAAFBBAF89E0E5ECF2E0DE01969634
:101A900001900D928A95E1F782E993E00E94800817
:101AA00088EA91E00E94960363E080E00E94980338
:101AB00083EB91E00E94960321E030E040E050E0AB
:101AC00060E070E0CB010E94F40F60E070E0CB01B9
:101AD0000E94C40F88EA92E00E94E7018091A90267
:101AE0009091AA029111BDC0882309F4BAC0F9C02F
:101AF000039709F031CE81E08093210388E0809341
:101B00004303109222031092440384E090E00E9469
:101B100091030E94EE0364E670E080E090E00E9492
:101B2000FE0581E090E00E944B0486E893E00E946D
:101B30004806182F82E993E00E9480088CE092E02A
:101B40000E949603812F0E944D1163E080E00E9465
:101B5000980381EC91E00E94960322E030E040E09F
:101B600050E060E070E0CB010E94F40F60E070E0B4
:101B7000CB010E94C40FC12CD12C7601812C912C59
:101B8000540195E0492E5524539428E0322E32E03A
:101B9000232E88EA92E00E94E7018091A9029091A9
:101BA000AA0291111FC08823E9F0C114D104E104F5
:101BB000F10409F0B1C11525812F0E944D11498210
:101BC0001A83509221033092430310922203109201
:101BD000440342E050E0B30186E893E00E94960699
:101BE0000E94EE038FB7F894C0904D03D0904E033F
:101BF000E0904F03F09050038FBFC814D904EA045B
:101C0000FB0419F475016401C4CF01E0602F80E08A
:101C10000E9498038AE092E00E9496030F5F0430CE
:101C2000A9F781E0C816D104E104F10469F092E05B
:101C3000C916D104E104F10449F0C114D104E1044E
:101C4000F10441F461E003C062E001C063E080E0C0
:101C50000E94980385EC91E00E949603460157018B
:101C6000D1CF8FB7F894C0904D03D0904E03E09041
:101C70004F03F09050038FBF8091B1029091B20258
:101C8000A091B302B091B402C816D906EA06FB06C9
:101C9000F9F063E0C114D104E104F10451F48EE0E1
:101CA0000E9498038AE092E00E94960363E081E03C
:101CB00009C081E00E9498038AE092E00E949603A6
:101CC00063E08EE00E94980385EC91E00E94960309
:101CD000C092B102D092B202E092B302F092B4028A
:101CE000F9CE8091B1029091B202A091B302B0916D
:101CF000B402892B8A2B8B2B09F42CCD86E1F301BE
:101D000011928A95E9F7FF24F394F982BE016E5F80
:101D10007F4FCE01805C9F4F0E94B609BC01CE016F
:101D2000CC960E94B6098E01085C1F4FBC01C80109
:101D30000E94B609BC01CE0187960E94B6092EA169
:101D4000FC012193BF01CE018B960E94B609F0924F
:101D5000210388E0E82EE0924303109222031092C0
:101D6000440346E150E0B30186E893E00E94960602
:101D70000E94EE0368EE73E080E090E00E94FE05B2
:101D8000F0922103E0924303109222031092440345
:101D900082E090E00E9491030E94EE032CAC3DACE7
:101DA0004EAC5FAC5E01F3E3AF0EB11CF1E0F0931B
:101DB000210388E08093430310922203109244038E
:101DC00083E090E00E9491030E94EE0364E670E0DD
:101DD00080E090E00E94FE058FE090E00E944B04BE
:101DE000FE0177967F019091D8028091D9029817D1
:101DF00039F086E893E00E944806F7018193F2CF1C
:101E0000FF88DE015896FE01F4968D918193E017CC
:101E1000F107D9F7DE019096FE01BF968D9181936F
:101E2000EA15FB05D9F78CA09DA082E993E00E94FA
:101E3000800887EC91E00E9496036F2D70E080E0AF
:101E400090E04AE00E94AD038CEC91E00E94960382
:101E50006FA578A989A99AA941E050E00E9438109D
:101E600061E080E00E94980382ED91E00E94960379
:101E7000CCA8DDA8EEA8FFA841E050E0C701B6015C
:101E80000E94381089ED91E00E949603A201910111
:101E9000C701B6010E94891420E030E048EC52E40A
:101EA0000E941C1641E050E00E94381062E080E081
:101EB0000E9498038DED91E00E949603882019F00E
:101EC00085EE91E002C08EEE91E00E94960364EFF1
:101ED00071E080E090E00E94FE05911067CF62E023
:101EE00080E00E94980387EF91E00E94960363E0F0
:101EF00080E00E94980383EA91E00E94960388EABA
:101F000092E00E94E7018091A9029091AA029111AA
:101F1000F6CF8823A1F31ECCCA94CD28CE28CF2893
:101F200009F018CC122548CEE6E8F3E013821282BD
:101F300088EE93E0A0E0B0E084839583A683B78326
:101F400088E091E091838083E2E9F3E013821282DA
:101F500088E191E0918380838BE084838FEF858398
:101F60008CE0868381E1878380E180878FE08187B1
:101F70008EE082871386148615861686178641E0C2
:101F800060E1CF010C945F050F931F938B019C01BF
:101F9000EFB7F8948091450390914603A0914703D1
:101FA000B0914803081719072A073B078CF04091A6
:101FB000490350914A0360914B0370914C03D9013E
:101FC000C801401751076207730714F4DB01CA0107
:101FD00080934D0390934E03A0934F03B09350030F
:101FE000EFBF1F910F910895CF92DF92EF92FF9272
:101FF0000F931F93F22FE32FAFB7F894609345032D
:1020000070934603809347039093480320934903BA
:1020100030934A0340934B0350934C0300914D037C
:1020200010914E0320914F0330915003061717076C
:10203000280739075CF0CF2EDE2E7A010C151D051E
:102040002E053F052CF46801790102C06B017C016B
:10205000C0924D03D0924E03E0924F03F092500392
:10206000AFBF1F910F91FF90EF90DF90CF90089539
:102070004F925F926F927F928F929F92AF92BF9298
:10208000CF92DF92EF92FF926B017C01B42E9B0105
:10209000AC010E94D916882319F081E292E027C092
:1020A00026013701E89477F82FEF3FEF4FE75FE71E
:1020B000C301B2010E94D91681110DC02FEF3FEF6D
:1020C0004FE75FE7C301B2010E94841418161CF4A5
:1020D00085E292E00CC02FEF3FEF4FE75FE4C701CE
:1020E000B6010E94E315181684F489E292E0FF908D
:1020F000EF90DF90CF90BF90AF909F908F907F90A8
:102100006F905F904F900C949B022FEF3FEF4FE743
:102110005FECC701B6010E94841487FDE6CF20E082
:1021200030E0A901C701B6010E94841487FF11C0E5
:10213000E0919203F09193030190F081E02D6DE224
:1021400082E993E009954C01F7FAF094F7F8F094DE
:1021500002C0812C912CA12C60E070E080E09FE314
:10216000AB1440F420E030E040E251E40E948914D6
:10217000A394F6CF9B01AC01C701B6010E941814CD
:102180002B013C010E9402156B017C010E9431155C
:102190009B01AC01C301B2010E9417142B013C0149
:1021A0004AE0C701B6010E94AD037C01E80CF91CAE
:1021B000BB2031F08DE292E00E949B02E80EF91EF6
:1021C000DB2CDD2021F120E030E040E251E4C301CE
:1021D000B2010E941C162B013C010E9402154B010A
:1021E000A12CB12C4AE0C501B4010E94AD03E80E58
:1021F000F91EC501B4010E9431159B01AC01C30158
:10220000B2010E9417142B013C01DA94DACFC70106
:10221000FF90EF90DF90CF90BF90AF909F908F9006
:102220007F906F905F904F900895CF93C82F61E09B
:1022300085E00E9498038EEF91E00E94960361E092
:1022400085E00E949803CC2319F08FE292E002C04F
:1022500085EC91E00E9496034091FF0350910004A9
:102260006091FB037091FC038091FD039091FE034C
:102270000E9438108AE092E00E9496038091F90350
:102280009091FA030E949603CC2329F081E392E017
:10229000CF910C949603CF910895CF93C82F61E00E
:1022A00080E00E949803C0FF03C083E392E002C075
:1022B0008EE392E00E94960362E080E00E94980321
:1022C000C1FF03C089E492E002C086E592E0CF91AD
:1022D0000C9496034F925F926F927F928F929F928F
:1022E000AF92BF92CF92DF92EF92FF920F931F9324
:1022F000CF93DF93CDB7DEB761970FB6F894DEBF0B
:102300000FBECDBF2B013C012E873F87488B598BD9
:10231000EE82FF8208871987B092FA03A092F90330
:10232000D0920004C092FF03B601DD0C880B990B1C
:102330000E9433159B01AC0160E070E080E291E403
:102340000E9489166B017C019B01AC01C301B201A3
:102350000E941C160E94FB146A877B878C879D87CE
:10236000A70196016E857F85888999890E941C1630
:102370000E94FB142B013C01A70196016E817F8115
:10238000888599850E941C160E94FB146093F503B2
:102390007093F6038093F7039093F80382E993E038
:1023A0000E948008F40101900020E9F7C4018E1B0F
:1023B0009F0B459697FD01969595879560E00E9445
:1023C0009803C4010E9496038E819F81A885B985D8
:1023D0008093FB039093FC03A093FD03B093FE0353
:1023E00080E00E94151164E083E00E94980383E678
:1023F00092E00E94960322E030E040E050E060E08E
:1024000070E0CB010E94F40F60E070E0CB010E940D
:10241000C40F00E010E088EA92E00E94E70180919A
:10242000A9029091AA0291114DC08111A7C04AC082
:102430000115110509F046C081E00E9415112A8599
:102440003B854C855D85C301B2010E94F40F60910C
:10245000F5037091F6038091F7039091F8030E94C1
:10246000C40F88EA92E00E94E7018091A90290914E
:10247000AA029111ABC0882309F4A8C02FB7F89421
:1024800080914D0390914E03A0914F03B091500362
:102490002FBF8093F5039093F603A093F703B093B7
:1024A000F80322E030E040E050E060E070E0CB0173
:1024B0000E94F40F60E070E0CB010E94C40F80E046
:1024C0000E9415118FB7F89480904D0390904E03A1
:1024D000A0904F03B09050038FBF8091F103909173
:1024E000F203A091F303B091F40388159905AA05AE
:1024F000BB0509F490CF61E085E00E9498038AE073
:1025000092E00E94960364E082E00E9498038AE0D1
:1025100092E00E94960364E08EE00E9498038AE0B5
:1025200092E00E94960381149104A104B10439F44D
:1025300061E085E00E94980300E010E012C064E0D2
:1025400091E089169104A104B10431F482E00E9463
:10255000980301E010E005C08EE00E94980302E0BD
:1025600010E085EC91E00E9496038092F103909236
:10257000F203A092F303B092F4034DCF88EA92E005
:102580000E94E7010130110571F48091FB039091E5
:10259000FC03A091FD03B091FE0389839A83AB8372
:1025A000BC831D8247C00230110509F041CF8091E4
:1025B000FB039091FC03A091FD03B091FE0389837E
:1025C0009A83AB83BC8381E08D8334C08FB7F8944A
:1025D00080904D0390904E03A0904F03B090500315
:1025E0008FBF8091F1039091F203A091F303B0911A
:1025F000F40388159905AA05BB0599F0C501B40136
:102600000E943315A70196010E9489146093FB0371
:102610007093FC038093FD039093FE0381E00E947E
:1026200015118092F1039092F203A092F303B092FD
:10263000F40317CF29813A814B815C816D8170E071
:1026400080E090E061960FB6F894DEBF0FBECDBF7C
:10265000DF91CF911F910F91FF90EF90DF90CF907E
:10266000BF90AF909F908F907F906F905F904F90B2
:102670000895CF93C0E06C2F80E00E9498038AE019
:1026800092E00E949603CF5FC430A9F78091A60222
:102690009091A7028130910561F024F4892B79F49F
:1026A00060E00AC08230910531F0039741F462E0A6
:1026B00003C061E001C063E080E00E94980385EC04
:1026C00091E0CF910C94960322E030E040E050E09E
:1026D00060E070E0CB010E94F40F60E070E0CB019D
:1026E0000E94C40F82E993E00E94800860E081E0CC
:1026F0000E94980382E792E00E94960361E081E0E5
:102700000E94980380E892E00E94960362E081E0D4
:102710000E9498038BE892E00E94960363E081E0B8
:102720000E94980380EA92E00E9496030E94391367
:1027300023E030E040E050E060E070E0CB010E9438
:10274000F40F60E070E0CB010C94C40FDB018F93B9
:102750009F930E94F713BF91AF91A29F800D911D8F
:10276000A39F900DB29F900D11240895A1E21A2EFF
:10277000AA1BBB1BFD010DC0AA1FBB1FEE1FFF1F25
:10278000A217B307E407F50720F0A21BB30BE40B75
:10279000F50B661F771F881F991F1A9469F76095BC
:1027A0007095809590959B01AC01BD01CF01089576
:1027B000052E97FB1EF400940E94EF1357FD07D0DF
:1027C0000E94B61307FC03D04EF40C94EF135095FF
:1027D0004095309521953F4F4F4F5F4F089590950D
:1027E0008095709561957F4F8F4F9F4F08950E9400
:1027F0000814A59F900DB49F900DA49F800D911D6E
:1028000011240895EE0FFF1F0590F491E02D099417
:10281000A29FB001B39FC001A39F700D811D112421
:10282000911DB29F700D811D1124911D0895505866
:10283000BB27AA270E942F140C94A9150E949B1550
:1028400038F00E94A21520F039F49F3F19F426F4C5
:102850000C9498150EF4E095E7FB0C949215E92F73
:102860000E94BA1558F3BA176207730784079507D1
:1028700020F079F4A6F50C94DC150EF4E0950B2EFF
:10288000BA2FA02D0B01B90190010C01CA01A001C2
:102890001124FF27591B99F0593F50F4503E68F11D
:1028A0001A16F040A22F232F342F4427585FF3CF5E
:1028B000469537952795A795F0405395C9F77EF42F
:1028C0001F16BA0B620B730B840BBAF09150A1F078
:1028D000FF0FBB1F661F771F881FC2F70EC0BA0FFE
:1028E000621F731F841F48F4879577956795B79586
:1028F000F7959E3F08F0B0CF9395880F08F0992781
:10290000EE0F9795879508950E946E1508F481E063
:1029100008950E949D140C94A9150E94A21558F0C8
:102920000E949B1540F029F45F3F29F00C9492150A
:1029300051110C94DD150C9498150E94BA1568F38A
:102940009923B1F3552391F3951B550BBB27AA2768
:1029500062177307840738F09F5F5F4F220F331FA2
:10296000441FAA1FA9F335D00E2E3AF0E0E832D06A
:1029700091505040E695001CCAF72BD0FE2F29D06D
:10298000660F771F881FBB1F261737074807AB073F
:10299000B0E809F0BB0B802DBF01FF2793585F4FB4
:1029A0003AF09E3F510578F00C9492150C94DD1589
:1029B0005F3FE4F3983ED4F3869577956795B79596
:1029C000F7959F5FC9F7880F911D9695879597F9A1
:1029D0000895E1E0660F771F881FBB1F621773071A
:1029E0008407BA0720F0621B730B840BBA0BEE1F2F
:1029F00088F7E09508950E9402156894B1110C942F
:102A0000DD1508950E94C21588F09F5798F0B92FE0
:102A10009927B751B0F0E1F0660F771F881F991F13
:102A20001AF0BA95C9F714C0B13091F00E94DC15C4
:102A3000B1E008950C94DC15672F782F8827B85FD4
:102A400039F0B93FCCF3869577956795B395D9F76B
:102A50003EF490958095709561957F4F8F4F9F4F75
:102A60000895E89409C097FB3EF490958095709581
:102A700061957F4F8F4F9F4F9923A9F0F92F96E9CA
:102A8000BB279395F695879577956795B795F1113F
:102A9000F8CFFAF4BB0F11F460FF1BC06F5F7F4FDC
:102AA0008F4F9F4F16C0882311F096E911C07723EE
:102AB00021F09EE8872F762F05C0662371F096E8F7
:102AC000862F70E060E02AF09A95660F771F881FC6
:102AD000DAF7880F9695879597F90895990F00086A
:102AE000550FAA0BE0E8FEEF16161706E807F907E0
:102AF000C0F012161306E407F50798F0621B730B7B
:102B0000840B950B39F40A2661F0232B242B252BFB
:102B100021F408950A2609F4A140A6958FEF811D9E
:102B2000811D089597F99F6780E870E060E008953F
:102B30009FEF80EC089500240A94161617061806D5
:102B40000906089500240A941216130614060506B1
:102B50000895092E0394000C11F4882352F0BB0F42
:102B600040F4BF2B11F460FF04C06F5F7F4F8F4FA5
:102B70009F4F089557FD9058440F551F59F05F3FE0
:102B800071F04795880F97FB991F61F09F3F79F08F
:102B900087950895121613061406551FF2CF469511
:102BA000F1DF08C0161617061806991FF1CF869593
:102BB0007105610508940895E894BB276627772777
:102BC000CB0197F908950E946E1508F48FEF0895D0
:102BD000FA01DC01AA0FBB1F9B01AC01BF5728F40F
:102BE000222733274427507820C0B75190F4AB2FC9
:102BF0000024469537952795011CA395D2F3002014
:102C000071F0220F331F441FB395DAF30ED00C94EA
:102C1000171461307105A0E88A07B94630F49B01AA
:102C2000AC016627772788279078309621F020839B
:102C300031834283538308950E942F160C94A91563
:102C40000E949B1538F00E94A21520F0952311F0E8
:102C50000C9492150C94981511240C94DD150E9477
:102C6000BA1570F3959FC1F3950F50E0551F629F01
:102C7000F001729FBB27F00DB11D639FAA27F00DD5
:102C8000B11DAA1F649F6627B00DA11D661F829FFC
:102C90002227B00DA11D621F739FB00DA11D621FE1
:102CA000839FA00D611D221F749F3327A00D611DFE
:102CB000231F849F600D211D822F762F6A2F1124E0
:102CC0009F5750409AF0F1F088234AF0EE0FFF1F13
:102CD000BB1F661F771F881F91505040A9F79E3F6A
:102CE000510580F00C9492150C94DD155F3FE4F3D0
:102CF000983ED4F3869577956795B795F795E795C0
:102D00009F5FC1F7FE2B880F911D9695879597F9C8
:102D10000895FA01EE0FFF1F309621053105A1F14C
:102D20006115710561F48038BFE39B0749F1689430
:102D30009038810561F08038BFEF9B0741F09923FF
:102D40004AF5FF3FE1053105210519F1E8940894A2
:102D5000E795D901AA2329F4AB2FBE2FF85FD0F352
:102D600010C0FF5F70F4A695E0F7F73950F019F046
:102D7000FF3A38F49F779F930DD00F9007FC90583F
:102D8000089546F00C94981560E070E080E89FE3A9
:102D900008954FE79F775F934F933F932F930E9440
:102DA00089172F913F914F915F910E941C160C94AF
:102DB000E6160E946E15880B990B089529F416F0FB
:102DC0000C9492150C94DC150C9498150E94C21565
:102DD000A8F39638A0F707F80F92E8942BE33AEAA5
:102DE00048EB5FE70E9432160F920F920F924DB799
:102DF0005EB70F920E94E815E8E6F0E00E9418170F
:102E00004F915F91EF91FF91E595EE1FFF1F49F004
:102E1000FE57E0684427EE0F441FFA95E1F741950D
:102E2000550B0E944B170F9007FE0C943F17089507
:102E3000DF93CF931F930F93FF92EF92DF927B016B
:102E40008C01689406C0DA2EEF010E942F16FE0155
:102E5000E894A5912591359145915591A6F3EF01FF
:102E60000E942F14FE019701A801DA9469F7DF9000
:102E7000EF90FF900F911F91CF91DF9108959B01EB
:102E8000AC0160E070E080E89FE30C9489140C943E
:102E900092150C94D1170E94C215D8F39923C9F347
:102EA000940F511DA3F39150504094F059F0882392
:102EB00032F0660F771F881F91505040C1F79E3F38
:102EC00051052CF7880F911D9695879597F90895D0
:102ED0005F3FACF0983E9CF0BB2786957795679551
:102EE000B79508F4B1609395C1F7BB0F58F711F48B
:102EF00060FFE8CF6F5F7F4F8F4F9F4FE3CF0C9402
:102F0000DD1516F00C94D1170C94981568940C9458
:102F100092150E94C215A8F39923C1F3AEF3DF9373
:102F2000CF931F930F93FF92C92FDD2788232AF099
:102F30002197660F771F881FDAF720E030E040E81E
:102F40005FEB9FE3883920F0803E38F021968F7741
:102F50000E941814E0E9F0E004C00E941814EDEBA0
:102F6000F0E00E9418178B01BE01EC01FB2E6F5799
:102F700071097595771F880B990B0E94331528E10D
:102F800032E741E35FE30E942F16AF2D9801AE01B7
:102F9000FF900F911F91CF91DF910E942F140C94FD
:102FA000A9159F3F31F0915020F48795779567954B
:102FB000B795880F911D9695879597F9089581E0AB
:0C2FC00090E0F8940C94E417F894FFCF14
:102FCC00CD00CD0000000000C60696065C06480643
:102FDC0039063806000000007708CE00436F696C94
:102FEC000057696E646572004932432074657374CE
:102FFC00206661696C6564206F6E20200020657608
:10300C00656E7473005265747279206E756D6265AD
:10301C0072200053657420776972652073697A6534
:10302C00006D6D00536574206E756D626572206F56
:10303C0066207475726E73005365742073706F6FB5
:10304C006C206C656E67746800543A0020573A0027
:10305C0053706F6F6C3A0053746B3A002031400020
:10306C00202020203E4F4B005374617274204A6F15
:10307C00623F00203E43616E63656C20202020205F
:10308C0020204F4B003E004C79723A002054707354
:10309C003A005475726E733A0020253A0052756EE0
:1030AC006E696E670020205220746F204C00202027
:1030BC004C20746F20520049646C65202020202025
:1030CC002020202020202020202020004D616E7503
:1030DC00616C206D6F746F7220636F6E74726F6CA5
:1030EC00006E616E00696E66006F7666002E005B86
:1030FC00005D002053706F6F6C204F4E20002053EA
:10310C00706F6F6C204F4646002053687574746C5A
:10311C0065204F4E20002053687574746C65204FE9
:10312C0046460043616E63656C2020202020204FB2
:10313C004B005365747570206E6577206A6F620062
:10314C00526576696577206A6F62004D616E7561B4
:10315C006C204D6F746F7220436F6E74726F6C00C5
:06316C005374617274004F
:00000001FF
