:100000000C94A3000C94D6010C94AF010C94CB007B
:100010000C94CB000C94CB000C94CB000C94CB0034
:100020000C94CB000C94CB000C94CB000C94CB0024
:100030000C94CB000C94CB000C94CB000C94CB0014
:100040000C9465010C94CB000C94CB000C94CB0069
:100050000C94CB000C94CB000C94CB000C94CB00F4
:100060000C9488080C94CB0007634236B79BD8A742
:100070001A39685618AEBAAB558C1D3CB7CC5763CD
:10008000BD6DEDFD753EF6177231BF000000803F7B
:1000900008000000BE922449123EABAAAA2ABECD97
:1000A000CCCC4C3E00000080BEABAAAAAA3E000009
:1000B0000000BF000000803F000000000008417801
:1000C000D3BB4387D1133D190E3CC3BD4282AD2B38
:1000D0003E68EC8276BED98FE1A93E4C80EFFFBE30
:1000E00001C4FF7F3F00000000000000000024006A
:1000F00027002A0000000000250028002B00000037
:10010000000023002600290004040404040404045D
:1001100002020202020203030303030301020408B2
:100120001020408001020408102001020408102061
:1001300000000008000201000003040700000000A6
:1001400000000000C10F11241FBECFEFD8E0DEBFBA
:10015000CDBF12E0A0E0B1E0E6E2F0E302C005901E
:100160000D92A63AB107D9F724E0A6EAB2E001C0A1
:100170001D92A430B207E1F710E0C3EAD0E004C05A
:100180002197FE010E942F14C23AD107C9F70E949D
:10019000CF090C9411180C9400000895CF92DF92AF
:1001A000EF92FF920F931F93CF93DF936C017A012D
:1001B0008B01C0E0D0E0CE15DF0589F0D8016D914C
:1001C0008D01D601ED91FC910190F081E02DC601E9
:1001D0000995892B11F47E0102C02196ECCFC7014D
:1001E000DF91CF911F910F91FF90EF90DF90CF9013
:1001F0000895CF93DF93EC0160E08E810E945C054F
:1002000061E08E810E945C0560E08E810E945C0549
:100210008BE891E00197F1F7DF91CF9108950E946B
:100220000C183FB7F8948091D7029091D802A09112
:10023000D902B091DA0226B5A89B05C02F3F19F06C
:100240000196A11DB11D3FBFBA2FA92F982F882756
:10025000820F911DA11DB11DBC01CD0142E0660FB1
:10026000771F881F991F4A95D1F708952FB7F894E3
:100270006091D3027091D4028091D5029091D60200
:100280002FBF08951F93CF93DF93EC01162F688340
:1002900058874F8360E0812F0E948C0561E0812F99
:1002A0000E945C050E9436016B837C838D839E8354
:1002B00088810E94330521E0892B09F420E02A83FC
:1002C0002983DF91CF911F9108951F920F920FB64E
:1002D0000F9211242F933F938F939F93AF93BF93CC
:1002E0008091D3029091D402A091D502B091D60210
:1002F0003091D20223E0230F2D3720F40196A11D67
:10030000B11D05C026E8230F0296A11DB11D209343
:10031000D2028093D3029093D402A093D502B093DB
:10032000D6028091D7029091D802A091D902B091C3
:10033000DA020196A11DB11D8093D7029093D802D5
:10034000A093D902B093DA02BF91AF919F918F91A0
:100350003F912F910F900FBE0F901F9018951F92F5
:100360000F920FB60F9211242F933F934F935F93E9
:100370006F937F938F939F93AF93BF93EF93FF936D
:10038000E0910201F09103010995FF91EF91BF9176
:10039000AF919F918F917F916F915F914F913F911D
:1003A0002F910F900FBE0F901F9018951F920F92D4
:1003B0000FB60F9211242F933F934F935F936F9338
:1003C0007F938F939F93AF93BF93EF93FF93E091AE
:1003D0000001F09101010995FF91EF91BF91AF915B
:1003E0009F918F917F916F915F914F913F912F914D
:1003F0000F900FBE0F901F9018958F929F92AF9203
:10040000BF92CF92DF92EF92FF920F931F93CF9301
:10041000DF93EC0188810E94330511E0892B09F4F8
:1004200010E00E9436012A812983CB80DC80ED8098
:10043000FE804F8158851217A9F04B015C018C1882
:100440009D08AE08BF086A01550FEE08FF088C141E
:100450009D04AE04BF040CF01A836B837C838D83F0
:100460009E831CC08A01550F220B330B4B015C018C
:100470008C189D08AE08BF0880169106A206B30628
:100480006CF0DC01CB01801B910BA20BB30B01972D
:10049000A109B1098B839C83AD83BE83DF91CF918A
:1004A0001F910F91FF90EF90DF90CF90BF90AF9092
:1004B0009F908F900895CF92DF92EF92FF920F93CB
:1004C0001F93CF93DF937C016C0187E0C80ED11C92
:1004D000C0E0D0E0062F10E0B8010C2E02C07595E8
:1004E00067950A94E2F76170F60181916F010E94AD
:1004F0005C052196C430D10579F7C701DF91CF9112
:100500001F910F91FF90EF90DF90CF900C94F90026
:10051000CF92DF92EF92FF920F931F93CF93DF93CF
:10052000EC01F62E642F8C810E945C058D818F3F3B
:1005300019F060E00E945C058F850F2D10E084FFAC
:1005400025C06E0187E0C80ED11CE12CF12CB8014A
:100550000E2C02C0759567950A94E2F76170F6015A
:1005600081916F010E945C05FFEFEF1AFF0A88E09E
:10057000E816F10461F7CE01DF91CF911F910F9141
:10058000FF90EF90DF90CF900C94F900B80184E0D9
:10059000759567958A95E1F7CE010E945B026F2DF4
:1005A000CE01DF91CF911F910F91FF90EF90DF90DF
:1005B000CF900C945B02833081F028F4813099F065
:1005C0008230A1F008958730A9F08830B9F08430E6
:1005D000D1F4809180008F7D03C0809180008F775F
:1005E00080938000089584B58F7702C084B58F7D95
:1005F00084BD08958091B0008F7703C08091B000D2
:100600008F7D8093B0000895009769F0FC01019000
:100610000020E9F73197AF01481B590BBC0185E970
:1006200093E00C94CE0080E090E008958F929F922A
:10063000AF92BF920F931F93CF93DF93CDB7DEB7E7
:10064000A1970FB6F894DEBF0FBECDBF19A24230FE
:1006500008F44AE08E010F5D1F4F842E912CA12CCF
:10066000B12CA50194010E94E313E62FB901CA0140
:1006700001501109EA3014F4E05D01C0E95CD801D1
:10068000EC93232B242B252B61F7C8010E94040334
:10069000A1960FB6F894DEBF0FBECDBFDF91CF910C
:1006A0001F910F91BF90AF909F908F9008958F9260
:1006B0009F92AF92BF92CF92DF92EF92FF92CF9331
:1006C000C82F0E943601C0907F03D0908003E09035
:1006D0008103F09082034B015C018C189D08AE08E9
:1006E000BF08C0908303D09084030D2C000CEE084B
:1006F000FF088C149D04AE04BF044CF140917E03AE
:10070000242F30E0F901EE0FFF1FEE0FFF1FE85B13
:10071000FC4F168E178E10A211A24F5F40937E03DE
:10072000220F331F220F331FF901EC5AFC4F668F43
:10073000778F80A391A360937F037093800380934E
:10074000810390938203433010F010927E03C11115
:1007500021C020917E0330E0F901EE0FFF1FEE0F64
:10076000FF1FEC5AFC4FC68CD78CE0A0F1A04B01C8
:100770005C018C189D08AE08BF087501640118144F
:1007800019041A041B040CF445C0C12CD12C7601A9
:10079000C39440C0C0906603D0906703E0906803A4
:1007A000F09069032FEFC21AD20AE20AF20AC0924D
:1007B0006603D0926703E0926803F0926903C090E9
:1007C0006A03D0906B03E0906C03F0906D032FEF01
:1007D000C21AD20AE20AF20AC0926A03D0926B03EA
:1007E000E0926C03F0926D03C0906E03D0906F03A3
:1007F000E0907003F09071032FEFC21AD20AE20A60
:10080000F20AC0926E03D0926F03E0927003F092EE
:1008100071039FCF220F331F220F331FF901E85BB3
:10082000FC4F668D778D80A191A10E94601520E01C
:1008300030E04AE754E40E9449164B015C01C701CD
:10084000B6010E9460159B01AC01C501B4010E9474
:10085000B614609385037093860380938703909307
:100860008803CF91FF90EF90DF90CF90BF90AF9033
:100870009F908F900895682F89E893E00C942F073C
:100880000C940403643008F063E09091A8036917A6
:1008900010F06FEF690FE62FF0E0EB56FC4F9489F4
:1008A000682F690F606885E993E00C947D082091BA
:1008B000470390914603213208F04AC080912303F8
:1008C0008111FCCF32E03093230331E030932203D7
:1008D0003FEF309321031092200320931F03A6E2E1
:1008E000B3E04FEF52E0FA013E2F341B321718F4F9
:1008F0003D913193F9CF1092FE022091FE02990FA3
:10090000922B9093FE029091FD02913061F410922F
:10091000FD029091FE029093BB009091BC0093FD6C
:10092000F8CF95EC01C095EE9093BC009091230315
:100930009230E1F3909121039F3F79F08091210360
:10094000803241F080912103803331F084E005C092
:1009500081E003C082E001C083E010922503109281
:100960004703109224030895909123039111FCCF23
:10097000813208F080E291E0909323039093220368
:100980002FEF2093210310922003280F20931F03A1
:100990009093FE029091FE0290619093FE029091DE
:1009A000FD02913061F41092FD029091FE0290934D
:1009B000BB009091BC0093FDF8CF95EC01C095EE83
:1009C0009093BC00909123039130E1F39091200328
:1009D000981710F480912003AFEFB2E02DED32E0D4
:1009E000F9019E2F921B981718F49D919193F9CFBE
:1009F0001092DC028093DB020895CF92DF92EF9297
:100A0000FF92CF93DF936C01990FEE08FF08F7FE7A
:100A10001FC0E0919503F09196030190F081E02DC5
:100A20006DE285E993E00995EC0166277727CB0114
:100A30006C197D098E099F094AE00E9416038C0FEC
:100A40009D1FDF91CF91FF90EF90DF90CF900895A1
:100A50004AE0C701B601DF91CF91FF90EF90DF90A0
:100A6000CF900C941603CF93DF93282F30E0F90139
:100A7000E05DFE4F8491F901E45EFE4FD491F901EF
:100A8000E85FFE4FC491CC2391F081110E94DB02FC
:100A9000EC2FF0E0EE0FFF1FE250FF4FA591B49155
:100AA000EC91ED2381E090E021F480E002C080E051
:100AB00090E0DF91CF9108951F93CF93DF93282F7C
:100AC00030E0F901E05DFE4F8491F901E45EFE4FF4
:100AD000D491F901E85FFE4FC491CC23C9F0162FE1
:100AE00081110E94DB02EC2FF0E0EE0FFF1FEC50B3
:100AF000FF4FA591B4918FB7F894111105C09C9147
:100B0000ED2FE095E92302C0EC91ED2BEC938FBF24
:100B1000DF91CF911F910895CF93DF9390E0FC0177
:100B2000E45EFE4F2491FC01E85FFE4F8491882330
:100B300061F190E0880F991FFC01E651FF4FC591CC
:100B4000D491FC01EC50FF4FA591B491611109C003
:100B50009FB7F8948881209582238883EC912E2377
:100B60000BC0623061F49FB7F8943881822F809572
:100B700083238883EC912E2B2C939FBF06C08FB7C5
:100B8000F894E8812E2B28838FBFDF91CF910895B1
:100B9000EF92FF920F931F93CF93DF93EC014230BC
:100BA00018F08F8588608F874B8B1C8A80E48D8B33
:100BB0006E8B70E0605C7F4F6F8B61E08C810E9478
:100BC0008C058D818F3F19F061E00E948C0561E0FA
:100BD0008E810E948C057E0187E0E80EF11C00E00A
:100BE00010E08F8584FD03C084E090E002C088E0BF
:100BF00090E0081719074CF461E0F70181917F013B
:100C00000E948C050F5F1F4FECCF8BE39DE0019797
:100C1000F1F760E08C810E945C0560E08E810E94AB
:100C20005C058D818F3F19F060E00E945C056F8547
:100C300064FD1DC063E0CE010E945B020BE416E47C
:100C4000C8010197F1F763E0CE010E945B02C80181
:100C50000197F1F763E0CE010E945B0283E592E029
:100C60000197F1F762E0CE010E945B0216C060625C
:100C7000CE010E947D088BE496E40197F1F76F8521
:100C80006062CE010E947D0883E592E00197F1F752
:100C90006F856062CE010E947D086F856062CE0123
:100CA0000E947D0884E0888B6CE0CE010E947D0864
:100CB000CE010E94800882E0898B66E0CE01DF9140
:100CC000CF911F910F91FF90EF900C947D088F9220
:100CD0009F92AF92BF92CF92DF92EF92FF926B0101
:100CE0007C010E9411014B015C01C114D104E1049B
:100CF000F104F1F00E941101DC01CB01881999097E
:100D0000AA09BB09883E9340A105B10570F321E013
:100D1000C21AD108E108F10888EE880E83E0981E17
:100D2000A11CB11CC114D104E104F10419F7DDCFF9
:100D3000FF90EF90DF90CF90BF90AF909F908F90FB
:100D400008950895E091DC028091DB02E81730F409
:100D5000F0E0E352FD4F808190E008958FEF9FEF28
:100D600008959091DC028091DB02981750F4E92FEE
:100D7000F0E0E352FD4F208130E09F5F9093DC0272
:100D800002C02FEF3FEFC90108958091DB0290E090
:100D90002091DC02821B9109089585ED8093BC00AF
:100DA0008091BC0084FDFCCF1092230308954091F4
:100DB000CF03262F30E0240F311D21323105DCF422
:100DC000209123032430C9F4FC0180E090E08617D1
:100DD00058F43091CF032191DC01A355BC4FA30FF0
:100DE000B11D2C930196F3CF8091CF03680F6093D0
:100DF000CF0380E0089581E0089582E00895CF92C6
:100E0000DF92EF92FF920F931F93CF93DF937C01BA
:100E1000262F972F8A0180912403882391F0C62FD3
:100E2000D72F6E01C40ED51ECC15DD0571F069916A
:100E3000D701ED91FC910190F081E02DC70109955A
:100E4000F3CF642F822F0E94D706C801DF91CF9184
:100E50001F910F91FF90EF90DF90CF900895CF9367
:100E6000DF931F92CDB7DEB769832091240322233D
:100E7000D1F020914703203240F021E030E0FC0126
:100E80003383228380E090E015C080912503E82F12
:100E9000F0E0EA5DFC4F998190838F5F809325039A
:100EA0008093470305C061E0CE0101960E94D706FA
:100EB00081E090E00F90DF91CF91089541E00E9492
:100EC000880281E090E008954F925F926F927F9246
:100ED0008F929F92AF92BF92CF92DF92EF92FF924A
:100EE0000F931F93CF93DF9384E593E00E94FD015E
:100EF0008DE593E00E94FD0180915503909156038A
:100F0000911102C0811113C080E0DF91CF911F9138
:100F10000F91FF90EF90DF90CF90BF90AF909F9098
:100F20008F907F906F905F904F900C94570381E06B
:100F30000E94570360918503709186038091870317
:100F4000909188030E942815653071050CF4D2C079
:100F50006091850370918603809187039091880347
:100F60000E9428156F3171056CF4609185037091B2
:100F7000860380918703909188030E942815EB01D6
:100F8000259702C0C9E1D0E040904C0350904D033A
:100F900060904E0370904F038090480390904903F7
:100FA000A0904A03B0904B03C301B20168197909BC
:100FB0008A099B0964367105810591053CF024E698
:100FC00030E040E050E00E94051404C021E030E031
:100FD00040E050E06E01DD0FEE08FF08C701B601EA
:100FE0000E94D3139B01AC01C701B6010E94D31329
:100FF0009B01AC01C701B6010E94D31329E03DE378
:1010000040E050E00E94051489019A010F5F1F4FD4
:101010002F4F3F4FC0905003D0905103E0905203A8
:10102000F090530360915F03611108C088279927EE
:10103000DC01801B910BA20BB30B02C0D901C801CC
:101040008C0D9D1DAE1DBF1D88159905AA05BB05FC
:10105000C4F1C0905003D0905103E0905203F0903F
:101060005303611108C088279927DC01801B910B6D
:10107000A20BB30B02C0D901C8018C0D9D1DAE1D82
:10108000BF1D481659066A067B06CCF080905003B7
:1010900090905103A0905203B0905303611108C087
:1010A00088279927DC01801B910BA20BB30B02C090
:1010B000D901C801880E991EAA1EBB1E02C0530189
:1010C00042018092500390925103A0925203B09239
:1010D0005303DF91CF911F910F91FF90EF90DF901D
:1010E000CF90BF90AF909F908F907F906F905F90C8
:1010F0004F900895C0E0D0E047CF40E00C948802C4
:1011000061E00E947D088BE39FE10197F1F708956C
:101110001F920F920FB60F9211242F933F934F936C
:101120005F936F937F938F939F93AF93BF93EF934F
:10113000FF938091B900887F803609F49CC068F5E0
:10114000883209F45BC090F4803109F454C038F45B
:10115000882309F4F6C0883009F44DC0F6C0883100
:1011600009F44CC0803209F45DC0EFC0803409F44A
:1011700068C048F4803309F455C0883309F0E5C0ED
:1011800080932103D8C0803509F44FC0883509F415
:101190005DC0883409F0D9C0D6C0883909F4C7C009
:1011A000A8F4883709F467C038F4883609F463C0B6
:1011B000803709F460C0C9C0883809F4B8C08039E4
:1011C00009F45FC0803809F0C0C05BC0803B09F4FF
:1011D00086C038F4803A09F466C0883A09F47FC0C2
:1011E000B4C0803C09F4A7C0883C09F4A4C0883B83
:1011F00009F48AC0AAC08091FE0210C09091200319
:1012000080911F03981770F5E091200381E08E0F05
:1012100080932003F0E0E150FD4F80818093BB007C
:1012200085EC86C0809321038EC0E091200381E08D
:101230008E0F809320038091BB00F0E0E150FD4FC2
:1012400080839091200380911F036EC0E091200362
:1012500081E08E0F809320038091BB00F0E0E1508D
:10126000FD4F80838091220381116DC081E08093C6
:10127000FD0284EA61C083E0809323031092F303AC
:10128000CFCF8091F303803208F051C0E091F30397
:1012900081E08E0F8093F3038091BB00F0E0ED526C
:1012A000FC4F8083BDCF85EC8093BC00109223035C
:1012B0008091F303803230F4E091F303F0E0ED52DB
:1012C000FC4F10826091F30370E0E091D103F09144
:1012D000D20383ED93E009951092F30336C084E0C6
:1012E000809323031092D0031092CF03E091CD039B
:1012F000F091CE0309958091CF03811105C081E063
:101300008093CF031092AD03E091D00381E08E0F64
:101310008093D003F0E0E355FC4F80818093BB00C5
:101320009091D0038091CF03981708F479CF85E886
:101330008093BC000AC085EC8093BC00109223030C
:1013400004C0109221030E94CD06FF91EF91BF913E
:10135000AF919F918F917F916F915F914F913F914D
:101360002F910F900FBE0F901F901895FC01DB017D
:10137000049621912D93E817F907D9F7CB0104962C
:1013800008959B012C5F3F4FFB014191BF01FC0180
:101390004193CF0162177307B9F7CB010895CF933B
:1013A000DF93CDB7DEB7C455D1090FB6F894DEBFD1
:1013B0000FBECDBF789484B5826084BD84B5816052
:1013C00084BD85B5826085BD85B5816085BD809110
:1013D0006E00816080936E00109281008091810088
:1013E0008260809381008091810081608093810080
:1013F000809180008160809380008091B100846042
:101400008093B1008091B00081608093B0008091A2
:101410007A00846080937A0080917A008260809361
:101420007A0080917A00816080937A0080917A00BE
:10143000806880937A001092C10044E064E185E9FD
:1014400093E00E94C80541E050E062E084E593E04B
:101450000E94420141E050E063E08DE593E00E948C
:1014600042010E94360160937F0370938003809352
:101470008103909382031092660310926703109287
:1014800068031092690360937203709373038093EF
:1014900074039093750310926A0310926B03109279
:1014A0006C0310926D0360937603709377038093BF
:1014B00078039093790310926E0310926F03109249
:1014C00070031092710360937A0370937B0380938F
:1014D0007C0390937D0310927E0386EA90E09093C4
:1014E000840380938303109250031092510310924F
:1014F0005203109253031092480310924903109222
:101500004A0310924B0388EE93E0A0E0B0E0809392
:101510004C0390934D03A0934E03B0934F034AE0C6
:1015200050E066E088EA92E00E9442011092DC02FC
:101530001092DB02109225031092470310922303AE
:1015400081E0809322031092FD0261E082E10E941B
:101550005C0561E083E10E945C058091B9008E7FAB
:101560008093B9008091B9008D7F8093B90088E4A1
:101570008093B80085E48093BC0084E697E0909364
:10158000010180930001809169008C7F81608093CC
:101590006900E89A61E088E00E9442048CE191E0F1
:1015A0000E94400462E087E00E94420481E291E0F0
:1015B0000E94400460ED77E080E090E00E946706C2
:1015C00085E993E00E948008C12CD12CBB24B39400
:1015D00098E0A92EB0922403A0924603109225030E
:1015E0001092470380E090E00E943B048AEA90E07A
:1015F0000E943B0485E590E00E943B048FEF90E061
:101600000E943B040E94570464E670E080E090E092
:101610000E94670683E090E00E94B404E12CF12C64
:1016200000E010E09091DB028091DC02981709F154
:1016300089E893E00E94B1068A3A39F40115110550
:10164000A9F48FEFE81AF80A11C0853539F4013092
:10165000110561F49FEFE91AF90A08C08F3F31F4D0
:101660000230110519F4EFEFEE1AFE0A0F5F1F4F5B
:10167000D9CFF3E0EF16F10469F183E0C816D10485
:1016800069F185E993E00E94800888E291E00E9478
:10169000400461E080E00E94420481E090E00E940A
:1016A000FD048DE391E00E94400463E080E00E942D
:1016B000420485E491E00E9440049FEFC91AD90AD0
:1016C000C6010E94FD0460ED77E080E090E00E949A
:1016D000670680CFE3E0CE16D104A9F461E08DE087
:1016E0000E945C0568EE73E080E090E00E9467066F
:1016F00060E08DE00E945C0568EE73E080E090E0C1
:101700000E946706EBCF1092D1020E94911388EAE3
:1017100092E00E94FD018091A9029091AA0291118C
:101720002BC0882349F18091A6029091A7020097CF
:1017300009F00BC1B3E58B2EB1E09B2E11E6A12E73
:1017400011E0B12E02E0C02ED12CE12CF12C00E0F2
:101750001FE32AE037ED43E25CE360E070E080E005
:1017600090E40E94971128AF39AF4AAF5BAF6CAFDE
:1017700061114EC00E9491138FB7F894C09050032E
:10178000D0905103E0905203F09053038FBF8091AB
:10179000B5029091B602A091B702B091B8028C1533
:1017A0009D05AE05BF0559F1E1E0CE16D104E10477
:1017B000F104D1F054F4C114D104E104F104E9F4CA
:1017C0001092A7021092A60218C082E0C816D10497
:1017D000E104F10461F093E0C916D104E104F104DD
:1017E00061F482E090E005C081E090E002C083E017
:1017F00090E09093A7028093A6020E946613C09285
:10180000B502D092B602E092B702F092B8027FCF52
:1018100074E6872E71E0972EE2E7AE2EE1E0BE2E51
:10182000CC24C394D12CE12CF12C0AEF13E420E05A
:1018300030E040E85FE360E070E48CE996E40E9409
:1018400097112A8F3B8F4C8F5D8F6E8F662309F423
:1018500091CF48E7842E41E0942E51E6A52E51E029
:10186000B52EE12CF12C00E211E420E030E040E85C
:101870005FE360E070E08AEF93E40E9497112983B0
:101880003A834B835C836D83662309F473CF28AD61
:1018900039AD4AAD5BAD2093C1023093C202409393
:1018A000C3025093C4028A8C9B8CAC8CBD8C8092FA
:1018B000BD029092BE02A092BF02B092C0026981A6
:1018C0007A818B819C816093B9027093BA02809374
:1018D000BB029093BC020E94B6140E942815072EEA
:1018E000000C880B990B0E9460156B017C019B0119
:1018F000AC01C501B4010E94B614AE01435C5F4F58
:101900000E94151621960CAD1DAD2EAD3FAD219751
:101910000093C5021093C6022093C7023093C802F9
:10192000C092C902D092CA02E092CB02F092CC02DD
:10193000A70196010E9449166093CD027093CE02D2
:101940008093CF029093D00215CF8130910509F09A
:1019500087C04090C5025090C6026090C702709048
:10196000C8028090C9029090CA02A090CB02B090A9
:10197000CC02C090CD02D090CE02E090CF02F09089
:10198000D00285E993E00E94800889E891E00E94F6
:1019900040046091BD027091BE028091BF0290919F
:1019A000C00241E050E00E9465108CE891E00E9486
:1019B00040046091C1027091C2028091C302909173
:1019C000C40242E050E00E94651061E080E00E94A5
:1019D000420480E991E00E9440046091B902709154
:1019E000BA028091BB029091BC0241E050E00E949B
:1019F000651062E080E00E94420487E991E00E9465
:101A0000400441E050E0C301B2010E9465108EE93C
:101A100091E00E94400441E050E0C501B4010E9401
:101A200065108CE991E00E94400441E050E0C7015C
:101A3000B6010E94651063E080E00E94420480EAE3
:101A400091E00E94400488EA92E00E94FD018091AA
:101A5000A9029091AA029111F6CF8823A1F38ACE10
:101A60008230910509F05FC08091C1029091C2025D
:101A7000A091C302B091C40265968CAF9DAFAEAF8A
:101A8000BFAF65978091BD029091BE02A091BF0249
:101A9000B091C00261968CAF9DAFAEAFBFAF619702
:101AA0008091B9029091BA02A091BB02B091BC02A0
:101AB0002D968CAF9DAFAEAFBFAF2D978CE0E5EC10
:101AC000F2E0DE019C9601900D928A95E1F785E99E
:101AD00093E00E94800888EA91E00E94400463E05D
:101AE00080E00E94420483EB91E00E94400421E0E8
:101AF00030E040E050E060E070E0CB010E94211057
:101B000060E070E0CB010E94F10F88EA92E00E9451
:101B1000FD018091A9029091AA029111BFC0882372
:101B200009F4BCC0FBC0039709F026CE81E0809386
:101B3000240388E080934603109225031092470304
:101B400084E090E00E943B040E94570464E670E049
:101B500080E090E00E94670681E090E00E94B4047B
:101B600089E893E00E94B106182F85E993E00E946E
:101B700080088CE092E00E944004812F0E947A113C
:101B800063E080E00E94420481EC91E00E94400406
:101B900022E030E040E050E060E070E0CB010E94E5
:101BA000211060E070E0CB010E94F10FC12CD12C1C
:101BB0007601812C912C540195E0692E7724739441
:101BC00028E0522E32E0432E88EA92E00E94FD0186
:101BD0008091A9029091AA02911121C08823F9F065
:101BE000C114D104E104F10409F0C3C11725812F08
:101BF0000E947A1169821A837092240350924603DC
:101C0000109225031092470342E050E0BE016F5F3F
:101C10007F4F89E893E00E94FF060E9457048FB728
:101C2000F894C0905003D0905103E0905203F0908C
:101C300053038FBFC814D904EA04FB0419F47501D7
:101C40006401C2CF01E0602F80E00E9442048AE07C
:101C500092E00E9440040F5F0430A9F781E0C816AB
:101C6000D104E104F10469F092E0C916D104E10461
:101C7000F10449F0C114D104E104F10441F461E03C
:101C800003C062E001C063E080E00E94420485EC92
:101C900091E00E94400446015701D1CF8FB7F894DC
:101CA000C0905003D0905103E0905203F090530342
:101CB0008FBF8091B1029091B202A091B302B09116
:101CC000B402C816D906EA06FB06F9F063E0C114AF
:101CD000D104E104F10451F48EE00E9442048AE050
:101CE00092E00E94400463E081E009C081E00E942C
:101CF00042048AE092E00E94400463E08EE00E9489
:101D0000420485EC91E00E944004C092B102D0925E
:101D1000B202E092B302F092B402F7CE8091B10227
:101D20009091B202A091B302B091B402892B8A2B98
:101D30008B2B09F41FCDFE0131967F0189E11192B1
:101D40008A95E9F711E01983BE016E5F7F4FCE01DE
:101D50008F5A9F4F0E94B609BC01CE01835B9F4FF3
:101D60000E94B609BC01CE01875B9F4F0E94B60955
:101D7000BC01CE01C0960E94B609BC01CE018C9672
:101D80000E94B609BC01CE01C4960E94B609109308
:101D9000240308E0009346031092250310924703A2
:101DA00049E150E0B70189E893E00E94FF060E94F4
:101DB000570468EE73E080E090E00E94670610939D
:101DC000240300934603109225031092470382E0F8
:101DD00090E00E943B040E94570461968CAC9DAC3D
:101DE000AEACBFAC6197EE24E39488E0F82EE092AD
:101DF0002403F0924603109225031092470383E0D8
:101E000090E00E943B040E94570464E670E080E08A
:101E100090E00E94670682E190E00E94B4048E0187
:101E2000065E1F4F9091DB028091DC02981741F013
:101E300089E893E00E94B106F80181938F01F2CF07
:101E4000BE01665E7F4FCE018B5B9F4F0E94C10932
:101E5000BC01CE018F5B9F4F0E94C109BC01CE0126
:101E6000CD960E94C109BC01CE01C8960E94C1094D
:101E7000FC010081118185E993E00E94800887ECD4
:101E800091E00E94400429966CAD7DAD8EAD9FAD72
:101E9000299741E050E00E9465108CEC91E00E948F
:101EA000400468AD79AD8AAD9BAD41E050E00E9441
:101EB000651061E080E00E94420482ED91E00E94A2
:101EC000400425966CAD7DAD8EAD9FAD259741E06C
:101ED00050E00E94651089ED91E00E944004A50148
:101EE000940125966CAD7DAD8EAD9FAD25970E947A
:101EF000B61420E030E048EC52E40E94491641E07C
:101F000050E00E94651062E080E00E9442048DED86
:101F100091E00E944004002319F085EE91E002C098
:101F20008EEE91E00E94400464EF71E080E090E06A
:101F30000E94670611115BCF62E080E00E944204BC
:101F400087EF91E00E94400463E080E00E94420439
:101F500083EA91E00E94400488EA92E00E94FD0139
:101F60008091A9029091AA029111F6CF8823A1F342
:101F700001CCCA94CD28CE28CF2809F0FBCB14255C
:101F800036CEE9E8F3E01382128288EE93E0A0E017
:101F9000B0E084839583A683B78388E091E0918342
:101FA0008083E5E9F3E01382128288E191E0918376
:101FB00080838BE084838FEF85838CE0868381E14F
:101FC000878380E180878FE081878EE08287138618
:101FD000148615861686178641E060E1CF010C94C1
:101FE000C8050F931F938B019C01EFB7F894809164
:101FF000480390914903A0914A03B0914B030817FD
:1020000019072A073B078CF040914C0350914D0370
:1020100060914E0370914F03D901C80140175107D9
:102020006207730714F4DB01CA0180935003909395
:102030005103A0935203B0935303EFBF1F910F912D
:102040000895CF92DF92EF92FF920F931F93F22F9A
:10205000E32FAFB7F89460934803709349038093DC
:102060004A0390934B0320934C0330934D034093CA
:102070004E0350934F030091500310915103209150
:1020800052033091530306171707280739075CF0EE
:10209000CF2EDE2E7A010C151D052E053F052CF4E2
:1020A0006801790102C06B017C01C0925003D0929B
:1020B0005103E0925203F0925303AFBF1F910F916F
:1020C000FF90EF90DF90CF9008954F925F926F92C4
:1020D0007F928F929F92AF92BF92CF92DF92EF92B8
:1020E000FF926B017C01B42E9B01AC010E9406178C
:1020F000882319F081E292E027C026013701E89495
:1021000077F82FEF3FEF4FE75FE7C301B2010E947F
:10211000061781110DC02FEF3FEF4FE75FE7C301B7
:10212000B2010E94B11418161CF485E292E00CC0B2
:102130002FEF3FEF4FE75FE4C701B6010E94101693
:10214000181684F489E292E0FF90EF90DF90CF9030
:10215000BF90AF909F908F907F906F905F904F90C7
:102160000C9404032FEF3FEF4FE75FECC701B6017C
:102170000E94B11487FDE6CF20E030E0A901C7013D
:10218000B6010E94B11487FF11C0E0919503F09150
:1021900096030190F081E02D6DE285E993E00995C9
:1021A0004C01F7FAF094F7F8F09402C0812C912CCE
:1021B000A12C60E070E080E09FE3AB1440F420E0ED
:1021C00030E040E251E40E94B614A394F6CF9B01A4
:1021D000AC01C701B6010E9445142B013C010E94CD
:1021E0002F156B017C010E945E159B01AC01C301A0
:1021F000B2010E9444142B013C014AE0C701B60120
:102200000E9416037C01E80CF91CBB2031F08DE222
:1022100092E00E940403E80EF91EDB2CDD2021F180
:1022200020E030E040E251E4C301B2010E944916CF
:102230002B013C010E942F154B01A12CB12C4AE02F
:10224000C501B4010E941603E80EF91EC501B401D0
:102250000E945E159B01AC01C301B2010E944414AF
:102260002B013C01DA94DACFC701FF90EF90DF90A9
:10227000CF90BF90AF909F908F907F906F905F9026
:102280004F900895CF93C82F61E085E00E944204EB
:102290008EEF91E00E94400461E085E00E944204DC
:1022A000CC2319F08FE292E002C085EC91E00E940D
:1022B000400440910204509103046091FE03709128
:1022C000FF0380910004909101040E9465108AE050
:1022D00092E00E9440048091FC039091FD030E94D3
:1022E0004004CC2329F081E392E0CF910C94400488
:1022F000CF910895CF93C82F61E080E00E944204FF
:10230000C0FF03C083E392E002C08EE392E00E942C
:10231000400462E080E00E944204C1FF03C089E4FF
:1023200092E002C086E592E0CF910C9440044F9277
:102330005F926F927F928F929F92AF92BF92CF9255
:10234000DF92EF92FF920F931F93CF93DF93CDB75E
:10235000DEB761970FB6F894DEBF0FBECDBF2B017D
:102360003C012E873F87488B598BEE82FF8208877E
:102370001987B092FD03A092FC03D0920304C0928F
:102380000204B601DD0C880B990B0E9460159B01BD
:10239000AC0160E070E080E291E40E94B6166B014F
:1023A0007C019B01AC01C301B2010E9449160E944D
:1023B00028156A877B878C879D87A70196016E8584
:1023C0007F85888999890E9449160E9428152B01CA
:1023D0003C01A70196016E817F81888599850E94C5
:1023E00049160E9428156093F8037093F9038093AF
:1023F000FA039093FB0385E993E00E948008F401BF
:1024000001900020E9F7C4018E1B9F0B459697FDB4
:1024100001969595879560E00E944204C4010E9450
:1024200040048E819F81A885B9858093FE03909397
:10243000FF03A0930004B093010480E00E944211C6
:1024400064E083E00E94420483E692E00E9440043C
:1024500022E030E040E050E060E070E0CB010E941C
:10246000211060E070E0CB010E94F10F00E010E06D
:1024700088EA92E00E94FD018091A9029091AA024F
:1024800091114DC08111A7C04AC00115110509F075
:1024900046C081E00E9442112A853B854C855D85BE
:1024A000C301B2010E9421106091F8037091F903F9
:1024B0008091FA039091FB030E94F10F88EA92E069
:1024C0000E94FD018091A9029091AA029111ABC0D6
:1024D000882309F4A8C02FB7F894809150039091F5
:1024E0005103A0915203B09153032FBF8093F8037F
:1024F0009093F903A093FA03B093FB0322E030E03A
:1025000040E050E060E070E0CB010E94211060E00C
:1025100070E0CB010E94F10F80E00E9442118FB762
:10252000F8948090500390905103A0905203B09083
:1025300053038FBF8091F4039091F503A091F603AC
:10254000B091F70388159905AA05BB0509F490CF4A
:1025500061E085E00E9442048AE092E00E9440042B
:1025600064E082E00E9442048AE092E00E9440041B
:1025700064E08EE00E9442048AE092E00E944004FF
:1025800081149104A104B10439F461E085E00E9452
:10259000420400E010E012C064E091E0891691046A
:1025A000A104B10431F482E00E94420401E010E091
:1025B00005C08EE00E94420402E010E085EC91E04C
:1025C0000E9440048092F4039092F503A092F603D7
:1025D000B092F7034DCF88EA92E00E94FD010130EE
:1025E000110571F48091FE039091FF03A091000406
:1025F000B091010489839A83AB83BC831D8247C059
:102600000230110509F041CF8091FE039091FF0344
:10261000A0910004B091010489839A83AB83BC83A9
:1026200081E08D8334C08FB7F894809050039090F0
:102630005103A0905203B09053038FBF8091F403D5
:102640009091F503A091F603B091F70388159905D1
:10265000AA05BB0599F0C501B4010E946015A70148
:1026600096010E94B6146093FE037093FF0380935B
:1026700000049093010481E00E9442118092F403CF
:102680009092F503A092F603B092F70317CF298139
:102690003A814B815C816D8170E080E090E06196D1
:1026A0000FB6F894DEBF0FBECDBFDF91CF911F9163
:1026B0000F91FF90EF90DF90CF90BF90AF909F90E1
:1026C0008F907F906F905F904F900895CF93C0E070
:1026D0006C2F80E00E9442048AE092E00E94400455
:1026E000CF5FC430A9F78091A6029091A7028130F4
:1026F000910561F024F4892B79F460E00AC08230FE
:10270000910531F0039741F462E003C061E001C03C
:1027100063E080E00E94420485EC91E0CF910C944C
:10272000400422E030E040E050E060E070E0CB01A7
:102730000E94211060E070E0CB010E94F10F85E95A
:1027400093E00E94800860E081E00E94420482E7FA
:1027500092E00E94400461E081E00E94420480E82F
:1027600092E00E94400462E081E00E9442048BE813
:1027700092E00E94400463E081E00E94420480EA0B
:1027800092E00E9440040E94661323E030E040E0A3
:1027900050E060E070E0CB010E94211060E070E04A
:1027A000CB010C94F10FDB018F939F930E942414B3
:1027B000BF91AF91A29F800D911DA39F900DB29FDD
:1027C000900D11240895A1E21A2EAA1BBB1BFD0136
:1027D0000DC0AA1FBB1FEE1FFF1FA217B307E40700
:1027E000F50720F0A21BB30BE40BF50B661F771F58
:1027F000881F991F1A9469F7609570958095909538
:102800009B01AC01BD01CF010895052E97FB1EF47D
:1028100000940E941C1457FD07D00E94E31307FC8C
:1028200003D04EF40C941C1450954095309521958E
:102830003F4F4F4F5F4F08959095809570956195EC
:102840007F4F8F4F9F4F08950E943514A59F900D85
:10285000B49F900DA49F800D911D11240895EE0F3B
:10286000FF1F0590F491E02D0994A29FB001B39F42
:10287000C001A39F700D811D1124911DB29F700D89
:10288000811D1124911D08955058BB27AA270E942D
:102890005C140C94D6150E94C81538F00E94CF1510
:1028A00020F039F49F3F19F426F40C94C5150EF46A
:1028B000E095E7FB0C94BF15E92F0E94E71558F34C
:1028C000BA17620773078407950720F079F4A6F515
:1028D0000C9409160EF4E0950B2EBA2FA02D0B01C7
:1028E000B90190010C01CA01A0011124FF27591B55
:1028F00099F0593F50F4503E68F11A16F040A22F5B
:10290000232F342F4427585FF3CF469537952795CB
:10291000A795F0405395C9F77EF41F16BA0B620BCA
:10292000730B840BBAF09150A1F0FF0FBB1F661F11
:10293000771F881FC2F70EC0BA0F621F731F841F54
:1029400048F4879577956795B795F7959E3F08F07A
:10295000B0CF9395880F08F09927EE0F979587953C
:1029600008950E949B1508F481E008950E94CA14FE
:102970000C94D6150E94CF1558F00E94C81540F04F
:1029800029F45F3F29F00C94BF1551110C940A16DD
:102990000C94C5150E94E71568F39923B1F35523EC
:1029A00091F3951B550BBB27AA2762177307840762
:1029B00038F09F5F5F4F220F331F441FAA1FA9F3F8
:1029C00035D00E2E3AF0E0E832D091505040E695E6
:1029D000001CCAF72BD0FE2F29D0660F771F881F47
:1029E000BB1F261737074807AB07B0E809F0BB0B3A
:1029F000802DBF01FF2793585F4F3AF09E3F51054E
:102A000078F00C94BF150C940A165F3FE4F3983EDF
:102A1000D4F3869577956795B795F7959F5FC9F736
:102A2000880F911D9695879597F90895E1E0660FB7
:102A3000771F881FBB1F621773078407BA0720F030
:102A4000621B730B840BBA0BEE1F88F7E095089599
:102A50000E942F156894B1110C940A1608950E94D3
:102A6000EF1588F09F5798F0B92F9927B751B0F01C
:102A7000E1F0660F771F881F991F1AF0BA95C9F702
:102A800014C0B13091F00E940916B1E008950C9481
:102A90000916672F782F8827B85F39F0B93FCCF334
:102AA000869577956795B395D9F73EF4909580957F
:102AB000709561957F4F8F4F9F4F0895E89409C09F
:102AC00097FB3EF490958095709561957F4F8F4F61
:102AD0009F4F9923A9F0F92F96E9BB279395F69577
:102AE000879577956795B795F111F8CFFAF4BB0FF5
:102AF00011F460FF1BC06F5F7F4F8F4F9F4F16C059
:102B0000882311F096E911C0772321F09EE8872FE2
:102B1000762F05C0662371F096E8862F70E060E09E
:102B20002AF09A95660F771F881FDAF7880F969517
:102B3000879597F90895990F0008550FAA0BE0E8BB
:102B4000FEEF16161706E807F907C0F0121613066F
:102B5000E407F50798F0621B730B840B950B39F4AF
:102B60000A2661F0232B242B252B21F408950A2615
:102B700009F4A140A6958FEF811D811D089597F955
:102B80009F6780E870E060E008959FEF80EC089513
:102B900000240A941616170618060906089500243C
:102BA0000A9412161306140605060895092E0394B6
:102BB000000C11F4882352F0BB0F40F4BF2B11F42A
:102BC00060FF04C06F5F7F4F8F4F9F4F089557FD89
:102BD0009058440F551F59F05F3F71F04795880F8B
:102BE00097FB991F61F09F3F79F087950895121622
:102BF00013061406551FF2CF4695F1DF08C01616CE
:102C000017061806991FF1CF86957105610508947E
:102C10000895E894BB2766277727CB0197F9089595
:102C20000E949B1508F48FEF0895FA01DC01AA0FAA
:102C3000BB1F9B01AC01BF5728F422273327442731
:102C4000507820C0B75190F4AB2F002446953795AB
:102C50002795011CA395D2F3002071F0220F331F9A
:102C6000441FB395DAF30ED00C944414613071050F
:102C7000A0E88A07B94630F49B01AC0166277727A4
:102C800088279078309621F02083318342835383C4
:102C900008950E945C160C94D6150E94C81538F051
:102CA0000E94CF1520F0952311F00C94BF150C94C1
:102CB000C51511240C940A160E94E71570F3959F10
:102CC000C1F3950F50E0551F629FF001729FBB2723
:102CD000F00DB11D639FAA27F00DB11DAA1F649FBF
:102CE0006627B00DA11D661F829F2227B00DA11D72
:102CF000621F739FB00DA11D621F839FA00D611DF8
:102D0000221F749F3327A00D611D231F849F600D18
:102D1000211D822F762F6A2F11249F5750409AF041
:102D2000F1F088234AF0EE0FFF1FBB1F661F771FCD
:102D3000881F91505040A9F79E3F510580F00C9498
:102D4000BF150C940A165F3FE4F3983ED4F38695C2
:102D500077956795B795F795E7959F5FC1F7FE2B38
:102D6000880F911D9695879597F90895FA01EE0FB2
:102D7000FF1F309621053105A1F16115710561F440
:102D80008038BFE39B0749F168949038810561F072
:102D90008038BFEF9B0741F099234AF5FF3FE105DB
:102DA0003105210519F1E8940894E795D901AA2382
:102DB00029F4AB2FBE2FF85FD0F310C0FF5F70F483
:102DC000A695E0F7F73950F019F0FF3A38F49F77FD
:102DD0009F930DD00F9007FC9058089546F00C94E7
:102DE000C51560E070E080E89FE308954FE79F77A6
:102DF0005F934F933F932F930E94B6172F913F916C
:102E00004F915F910E9449160C9413170E949B15D5
:102E1000880B990B089529F416F00C94BF150C94A7
:102E200009160C94C5150E94EF15A8F39638A0F763
:102E300007F80F92E8942BE33AEA48EB5FE70E9429
:102E40005F160F920F920F924DB75EB70F920E94CE
:102E50001516E8E6F0E00E9445174F915F91EF915B
:102E6000FF91E595EE1FFF1F49F0FE57E0684427EC
:102E7000EE0F441FFA95E1F74195550B0E94781724
:102E80000F9007FE0C946C170895DF93CF931F9358
:102E90000F93FF92EF92DF927B018C01689406C042
:102EA000DA2EEF010E945C16FE01E894A5912591AF
:102EB000359145915591A6F3EF010E945C14FE01F6
:102EC0009701A801DA9469F7DF90EF90FF900F91D6
:102ED0001F91CF91DF9108959B01AC0160E070E0FC
:102EE00080E89FE30C94B6140C94BF150C94FE1765
:102EF0000E94EF15D8F39923C9F3940F511DA3F342
:102F00009150504094F059F0882332F0660F771FAB
:102F1000881F91505040C1F79E3F51052CF7880FF4
:102F2000911D9695879597F908955F3FACF0983E6F
:102F30009CF0BB27869577956795B79508F4B160A7
:102F40009395C1F7BB0F58F711F460FFE8CF6F5F9F
:102F50007F4F8F4F9F4FE3CF0C940A1616F00C94BF
:102F6000FE170C94C51568940C94BF150E94EF15BC
:102F7000A8F39923C1F3AEF3DF93CF931F930F937D
:102F8000FF92C92FDD2788232AF02197660F771F2C
:102F9000881FDAF720E030E040E85FEB9FE38839F4
:102FA00020F0803E38F021968F770E944514E0E9AA
:102FB000F0E004C00E944514EDEBF0E00E944517DC
:102FC0008B01BE01EC01FB2E6F5771097595771FC0
:102FD000880B990B0E94601528E132E741E35FE31B
:102FE0000E945C16AF2D9801AE01FF900F911F91CA
:102FF000CF91DF910E945C140C94D6159F3F31F065
:10300000915020F4879577956795B795880F911D16
:103010009695879597F9089581E090E0F8940C943F
:063020001118F894FFCF27
:10302600CD00CD00000000002F07FF06C506B10643
:10303600A206A106000000005E07CE00436F696C81
:103046000057696E64657200493243207465737473
:10305600206661696C6564206F6E202000206576AD
:10306600656E7473005265747279206E756D626553
:1030760072200053657420776972652073697A65DA
:10308600006D6D00536574206E756D626572206FFC
:1030960066207475726E73005365742073706F6F5B
:1030A6006C206C656E67746800543A0020573A00CD
:1030B60053706F6F6C3A0053746B3A0020314000C6
:1030C600202020203E4F4B005374617274204A6FBB
:1030D600623F00203E43616E63656C202020202005
:1030E60020204F4B003E004C79723A0020547073FA
:1030F6003A005475726E733A0020253A0052756E86
:103106006E696E670020205220746F204C002020CC
:103116004C20746F20520049646C652020202020CA
:103126002020202020202020202020004D616E75A8
:10313600616C206D6F746F7220636F6E74726F6C4A
:10314600006E616E00696E66006F7666002E005B2B
:10315600005D002053706F6F6C204F4E200020538F
:10316600706F6F6C204F4646002053687574746C00
:1031760065204F4E20002053687574746C65204F8F
:1031860046460043616E63656C2020202020204F58
:103196004B005365747570206E6577206A6F620008
:1031A600526576696577206A6F62004D616E75615A
:1031B6006C204D6F746F7220436F6E74726F6C006B
:0631C600537461727400F5
:00000001FF
